:1000000019C028C027C026C025C024C023C022C0D4
:1000100021C020C01FC01EC01DC01CC01BC01AC0F4
:1000200019C018C017C016C015C014C013C012C024
:1000300011C010C011241FBECFEFD4E0DEBFCDBF72
:1000400011E0A0E0B1E001C01D92A430B107E1F7DA
:1000500064D0C0C0D5CFE8E2F0E080818E7F80839D
:10006000E7E2F0E080818160808384ED93E0019796
:10007000F1F780818E7F808385EB8A95F1F786B1D9
:10008000817080930201ECE4F3E03197F1F7089579
:1000900020E090E0E7E2F0E055E04AE0A6E2B0E0E0
:1000A00035EA808181608083852F8A95F1F7808190
:1000B0008E7F8083842F8A95F1F796958C9180FDB1
:1000C0009068832F8A95F1F72F5F283051F7892F99
:1000D0000895282F90E0E7E2F0E035E045EA8081DE
:1000E00081608083832F8A95F1F720FF04C080818F
:1000F0008E7F808303C0808181608083842F8A9576
:10010000F1F780818E7F8083832F8A95F1F79F5F3F
:10011000983011F02695E3CF0895DF92EF92FF9289
:100120000F931F93CF93DF938FEF8AB9E4E2F0E050
:1001300080818F6080831BB815B8E0E7F0E0808194
:1001400081608083E1EBF0E080818260808384EFD6
:1001500091E028EC30E0F9013197F1F70197D9F7F8
:1001600078940F2EF0E1EF2EF7E2FF2EF02DC8EC81
:10017000D0E0DD24D3946FDF8CECABDF84E4A9DF27
:100180009701CE010197F1F721503040D1F763DF9D
:100190008CEC9FDF8EEB9DDF7BDF8093010178DFAE
:1001A00080930001D092030183FFE5CF10920301F9
:1001B000182F00E08091010190E0802B912B909509
:1001C00081959F4F80930101892F990F990B8093FF
:0801D0000001D1CFF894FFCF2C
:00000001FF
